:100000000C942A000C940A010C9433010C945C01AA
:100010000C9447000C9447000C9447000C94470044
:100020000C9447000C9447000C9447000C94470034
:100030000C9447000C9447000C9447000C94470024
:100040000C9447000C9447000C9447000C94470014
:100050000C94470011241FBECFE5D8E0DEBFCDBF12
:1000600010E0A0E6B0E0EAEBF9E002C005900D92E6
:10007000AC39B107D9F720E0ACE9B0E001C01D927E
:10008000A83AB207E1F70E9463000C94DB040C94D9
:10009000000041E061E083E390E00E94EA0040E07C
:1000A00062E083E390E00E94EA00089541E062E0AC
:1000B00083E390E00E94EA0040E061E083E390E0A7
:1000C0000E94EA00089542E060E083E390E00E942D
:1000D000A20042E061E083E390E00E94A20042E0DF
:1000E00062E083E390E00E94A20060E080E00E9472
:1000F0008E0162E081E00E948E0189E490E090939D
:10010000A1008093A00086E590E090939F008093EB
:100110009E008FB780688FBFC1E0D1E04C2F60E0B8
:1001200083E390E00E94EA008D2FC11180E0C82F88
:100130002FEF83ED90E3215080409040E1F700C025
:100140000000ECCFFC014130C9F018F0423061F101
:100150000895683081F0218181E090E002C0880F2D
:10016000991F6A95E2F78095922F98239183928147
:10017000892382830895118212820895683081F064
:10018000218181E090E002C0880F991F6A95E2F713
:10019000982F9095922391839281892B8283089541
:1001A00011828FEF82830895683081F0218181E090
:1001B00090E002C0880F991F6A95E2F7922F982B62
:1001C0009183928180958923828308958FEF818323
:1001D000128208956830D9F0413061F4FC01428107
:1001E00021E030E002C0220F331F6A95E2F7242B92
:1001F00022830895FC01428121E030E002C0220FF9
:10020000331F6A95E2F72095242322830895FC0189
:10021000428308951F920F920FB60F9211242F93CD
:100220003F934F935F936F937F938F939F93AF937E
:10023000BF93EF93FF93E091A000F091A10030975E
:1002400009F00995FF91EF91BF91AF919F918F9127
:100250007F916F915F914F913F912F910F900FBEC2
:100260000F901F9018951F920F920FB60F921124A6
:100270002F933F934F935F936F937F938F939F93AE
:10028000AF93BF93EF93FF93E0919E00F0919F0097
:10029000309709F00995FF91EF91BF91AF919F9130
:1002A0008F917F916F915F914F913F912F910F901F
:1002B0000FBE0F901F9018951F920F920FB60F92BE
:1002C00011242F933F934F935F936F937F938F935B
:1002D0009F93AF93BF93EF93FF93E0919C00F091B6
:1002E0009D00309709F00995FF91EF91BF91AF9173
:1002F0009F918F917F916F915F914F913F912F913E
:100300000F900FBE0F901F901895C0E6D0E0DF93BE
:10031000CF930E94FD010F900F90F9CF813079F1BA
:1003200020F0823009F455C066C0611107C085B75E
:10033000816085BF85B7826085BF1DC0613039F49B
:1003400085B78E7F85BF85B7826085BF14C0623058
:1003500039F485B78E7F85BF85B7826085BF0BC0B6
:10036000633039F485B78E7F85BF85B78D7F85BFB4
:1003700002C00E9485018BB780648BBF0895611114
:1003800007C085B7886085BF85B7846085BF1DC0FD
:10039000613039F485B7886085BF85B78B7F85BFAD
:1003A00014C0623039F485B7877F85BF85B7846014
:1003B00085BF0BC0633039F485B7877F85BF85B7AC
:1003C0008B7F85BF02C00E9485018BB780688BBF81
:1003D0000895611104C084B7806484BF08C061308F
:1003E00021F484B78F7B84BF02C00E9485018BB744
:1003F00080628BBF08950E948501A0E0B0E0E3E039
:10040000F2E00C94B404AE014B5F5F4FFA016191CE
:100410007191AF018091A4009091A5000E941302F8
:10042000E2E00C94D004ABE0B0E0E9E1F2E00C943F
:10043000A4046C017B018A01FC011782168283816E
:1004400081FFCCC1CE0101963C01F6019381F701F9
:1004500093FD859193FF81917F01882309F4BAC1AF
:10046000853239F493FD859193FF81917F01853227
:1004700029F4B60190E00E940A04E7CF912C212CC8
:10048000312CFFE1F315D8F08B3279F038F480325B
:1004900079F08332A1F4232D20611DC08D3261F0EB
:1004A000803369F4232D216016C0832D8260382E9D
:1004B000E32DE4603E2E2AC0F32DF8601DC037FC0A
:1004C0002DC020ED280F2A3040F08E32B9F436FCD2
:1004D00081C1232D2064322E19C036FE06C08AE069
:1004E000989E200D1124922E11C0EAE02E9E200D20
:1004F0001124222EF32DF0623F2E08C08C3621F4F9
:10050000832D8068382E02C0883641F4F70193FDB0
:10051000859193FF81917F018111B3CF982F9F7DAA
:100520009554933028F40C5F1F4F9FE399830DC0BF
:10053000833631F0833771F0833509F059C021C01B
:10054000F801808189830E5F1F4F88248394912C4A
:10055000530113C02801F2E04F0E511CF801A08096
:10056000B18036FE03C0692D70E002C06FEF7FEFEF
:10057000C5010E94FF034C018201F32DFF773F2E3E
:1005800016C0280122E0420E511CF801A080B18063
:1005900036FE03C0692D70E002C06FEF7FEFC5012A
:1005A0000E94F4034C01F32DF0683F2E820133FCCE
:1005B0001BC0822D90E088169906B0F4B60180E247
:1005C00090E00E940A042A94F4CFF50137FC85914B
:1005D00037FE81915F01B60190E00E940A0421106C
:1005E0002A9421E0821A91088114910471F7E8C0DD
:1005F000843611F0893641F5F80137FE07C0608175
:100600007181828193810C5F1F4F08C0608171816D
:10061000072E000C880B990B0E5F1F4FF32DFF76F2
:100620003F2E97FF09C090958095709561957F4FFB
:100630008F4F9F4FF0683F2E2AE030E0A3010E94C9
:100640004604882E861845C0853731F4232D2F7E29
:10065000B22E2AE030E025C0932D997FB92E8F3637
:10066000C1F018F4883579F0B5C0803719F08837B3
:1006700021F0B0C0E92FE061BE2EB4FE0DC0FB2D0D
:10068000F460BF2E09C034FE0AC0292F2660B22EA6
:1006900006C028E030E005C020E130E002C020E1E3
:1006A00032E0F801B7FE07C06081718182819381D9
:1006B0000C5F1F4F06C06081718180E090E00E5F8B
:1006C0001F4FA3010E944604882E8618FB2DFF773A
:1006D0003F2E36FE0DC0232D2E7FA22E891458F4F6
:1006E00034FE0BC032FC09C0832D8E7EA82E05C0BF
:1006F000B82CA32C03C0B82C01C0B92CA4FE0FC089
:10070000FE01E80DF11D8081803321F49A2D997E40
:10071000A92E09C0A2FE06C0B394B39404C08A2DCA
:10072000867809F0B394A3FC11C0A0FE06C0B214F1
:1007300088F4280C922C9B180EC0B21460F4B601F9
:1007400080E290E00E940A04B394F7CFB21418F448
:100750002B1802C0982C212CA4FE10C0B60180E3F7
:1007600090E00E940A04A2FE17C0A1FC03C088E723
:1007700090E002C088E590E0B6010CC08A2D867832
:1007800059F0A1FE02C08BE201C080E2A7FC8DE21D
:10079000B60190E00E940A04891438F4B60180E39F
:1007A00090E00E940A049A94F7CF8A94F301E80D2E
:1007B000F11D8081B60190E00E940A048110F5CFFE
:1007C000222009F442CEB60180E290E00E940A04A1
:1007D0002A94F6CFF6018681978102C08FEF9FEFB2
:1007E0002B96E2E10C94C004FC010590615070402E
:1007F0000110D8F7809590958E0F9F1F0895FC01EA
:100800006150704001900110D8F7809590958E0F3F
:100810009F1F08950F931F93CF93DF93FB012381B5
:1008200021FD03C08FEF9FEF2CC022FF16C0468131
:100830005781248135814217530744F4A081B18147
:100840009D012F5F3F4F318320838C932681378119
:100850002F5F3F4F3783268314C08B01EC01FB01D0
:100860000084F185E02D0995892BE1F6D8011696D3
:100870008D919C911797019617969C938E9316973E
:10088000CE01DF91CF911F910F910895FA01AA2710
:10089000283051F1203181F1E8946F936E7F6E5FC3
:1008A0007F4F8F4F9F4FAF4FB1E03ED0B4E03CD071
:1008B000670F781F891F9A1FA11D680F791F8A1F54
:1008C000911DA11D6A0F711D811D911DA11D20D0BB
:1008D00009F468943F912AE0269F11243019305D75
:1008E0003193DEF6CF010895462F4770405D419366
:1008F000B3E00FD0C9F7F6CF462F4F70405D4A33B3
:1009000018F0495D31FD4052419302D0A9F7EACF7A
:10091000B4E0A6959795879577956795BA95C9F7A9
:1009200000976105710508959B01AC010A2E06949C
:100930005795479537952795BA95C9F7620F731F55
:10094000841F951FA01D08952F923F924F925F9292
:100950006F927F928F929F92AF92BF92CF92DF92CF
:10096000EF92FF920F931F93CF93DF93CDB7DEB734
:10097000CA1BDB0B0FB6F894DEBF0FBECDBF0994C8
:100980002A88398848885F846E847D848C849B841F
:10099000AA84B984C884DF80EE80FD800C811B812D
:1009A000AA81B981CE0FD11D0FB6F894DEBF0FBE5C
:0A09B000CDBFED010895F894FFCFCC
:1009BA00212120536F6D657468696E672057656ED3
:1009CA00742057726F6E6720212120506C65617305
:1009DA006520526520436865636B20596F757220E4
:0C09EA0053657474696E672021210000C1
:00000001FF
